:040000003EEF05F0DA
:100800000033616C61796B6F6D004173616C616D78
:100810006F000000E8CF04F0F00E81169316939C51
:10082000939A93988A9C8A9A8A982CEC05F0300EB9
:10083000BBEC04F0050E20EC05F0300EBBEC04F030
:10084000010E20EC05F0320EBBEC04F0D9EC04F004
:100850000009FCE1D9EC04F00009FCE10450BBEC18
:1008600004F0D9EC04F00009FCE1080EBBEC04F044
:10087000D9EC04F00009FCE10F0EBBEC04F0D9EC5C
:1008800004F00009FCE1010EBBEC04F0D9EC04F02B
:100890000009FCE1040EBBEC04F0D9EC04F0000903
:1008A000FCE1800E7BEF04F045EC05F0280E0AEC2D
:1008B00004F0D9EC04F00009FCE10D0EBBEC04F0EF
:1008C0000E0EBBEC04F0060EBBEC04F00A0E0BECB3
:1008D00005F0050EF6EC04F0D9EC04F00009FCE19B
:1008E000400E7BEC04F0010E0BEC05F0050EF6EC6F
:1008F00004F000EF00F0E8CF03F0F00E931681163D
:1009000003C002F0800E021202380F0B81128A9C83
:100910008A9A35EC05F08A8835EC05F08A98F00E55
:10092000811603500F0B811235EC05F08A8835ECE7
:1009300005F08A980F0E93120F0CE8CF02F0F00E1C
:100940009316811602380F0B81128A8A8A9C35EC25
:1009500005F08A8835EC05F08A98F00E8116025071
:100960000F0B811235EC05F08A8835EC05F08A987A
:100970000F0E93120F0CE8CF02F0F00E93168116B3
:1009800002380F0B81128A9C8A9A35EC05F08A880E
:1009900035EC05F08A98F00E811602500F0B81128B
:1009A00035EC05F08A8835EC05F08A980F0E931225
:1009B0000F0C8A8C8A9A35EC05F08A8835EC05F0A4
:1009C00081A60AD08A9835EC05F08A8835EC05F0C6
:1009D0008A988A9C010E09D08A9835EC05F08A889D
:1009E00035EC05F08A988A9C000E1200E8CF03F0DF
:1009F0000BD0D9EC04F00009FCE10350D96EDA6A9F
:100A0000DF509DEC04F0032A0350D96EDA6ADF5000
:100A1000D8B41200EED7E8CF03F00BD0D9EC04F035
:100A20000009FCE103C0F6FF0800F5509DEC04F05E
:100A3000032A03C0F6FF0800F550D8B41200EED721
:100A4000E8CF02F00D0E016EFC0EE82EFED7012E4F
:100A5000FCD7022EF7D712009C0E016ED70EE82E9F
:100A6000FED7012EFCD700F012005E0E016E800E44
:100A7000E82EFED7012EFCD700D01200000EF86E33
:100A8000080EF76E000154EF04F08A6A936A1200B0
:020000040020DA
:08000000FFFFFFFFFFFFFFFF00
:020000040030CA
:0E00000000051F1FFF8385FF0FC00FE00F409C
:00000001FF
